{
  "contractName": "SimpleStorage",
  "abi": [
    {
      "inputs": [
        {
          "internalType": "uint256",
          "name": "_a",
          "type": "uint256"
        }
      ],
      "name": "setter",
      "outputs": [],
      "stateMutability": "nonpayable",
      "type": "function"
    },
    {
      "inputs": [],
      "name": "getter",
      "outputs": [
        {
          "internalType": "uint256",
          "name": "",
          "type": "uint256"
        }
      ],
      "stateMutability": "view",
      "type": "function",
      "constant": true
    }
  ],
  "bytecode": "0x608060405234801561001057600080fd5b506101c0806100206000396000f3fe608060405234801561001057600080fd5b50600436106100365760003560e01c8063993a04b71461003b578063d423740b14610059575b600080fd5b610043610075565b60405161005091906100ae565b60405180910390f35b610073600480360381019061006e91906100fa565b61008b565b005b600060026000546100869190610156565b905090565b8060008190555050565b6000819050919050565b6100a881610095565b82525050565b60006020820190506100c3600083018461009f565b92915050565b600080fd5b6100d781610095565b81146100e257600080fd5b50565b6000813590506100f4816100ce565b92915050565b6000602082840312156101105761010f6100c9565b5b600061011e848285016100e5565b91505092915050565b7f4e487b7100000000000000000000000000000000000000000000000000000000600052601160045260246000fd5b600061016182610095565b915061016c83610095565b925082820190508082111561018457610183610127565b5b9291505056fea264697066735822122035e5dd4359452ff6708687865bf7e6c02fcca8e069195c250ecb093d4afaf63564736f6c63430008110033",
  "immutableReferences": {},
  "source": "// SPDX-License-Identifier: MIT\r\n\r\npragma solidity >=0.5.0 < 0.9.0;\r\n\r\ncontract SimpleStorage{\r\n    uint256 a;\r\n\r\n    function setter(uint256 _a) public{\r\n        a= _a;\r\n    }\r\n\r\n    function getter() public view returns(uint256){\r\n        return a+2;\r\n    }\r\n\r\n    \r\n}",
  "sourcePath": "C:\\Users\\kr_ke\\Desktop\\Ethereum\\truffle_vid\\contracts\\SimpleStorage.sol",
  "compiler": {
    "name": "solc",
    "version": "0.8.17+commit.8df45f5f.Emscripten.clang"
  },
  "schemaVersion": "3.4.11",
  "updatedAt": "2023-01-24T18:25:16.155Z",
  "networkType": "ethereum",
  "devdoc": {
    "kind": "dev",
    "methods": {},
    "version": 1
  },
  "userdoc": {
    "kind": "user",
    "methods": {},
    "version": 1
  }
}